{
  "_format": "hh-sol-artifact-1",
  "contractName": "FIRRegistry",
  "sourceName": "contracts/FIRRegistry.sol",
  "abi": [
    {
      "anonymous": false,
      "inputs": [
        {
          "indexed": true,
          "internalType": "string",
          "name": "firId",
          "type": "string"
        },
        {
          "indexed": false,
          "internalType": "string",
          "name": "cid",
          "type": "string"
        },
        {
          "indexed": false,
          "internalType": "string",
          "name": "dataHash",
          "type": "string"
        },
        {
          "indexed": false,
          "internalType": "uint256",
          "name": "timestamp",
          "type": "uint256"
        },
        {
          "indexed": true,
          "internalType": "address",
          "name": "registeredBy",
          "type": "address"
        }
      ],
      "name": "FIRCreated",
      "type": "event"
    },
    {
      "anonymous": false,
      "inputs": [
        {
          "indexed": true,
          "internalType": "string",
          "name": "firId",
          "type": "string"
        },
        {
          "indexed": true,
          "internalType": "address",
          "name": "verifiedBy",
          "type": "address"
        },
        {
          "indexed": false,
          "internalType": "uint256",
          "name": "timestamp",
          "type": "uint256"
        }
      ],
      "name": "FIRVerified",
      "type": "event"
    },
    {
      "inputs": [],
      "name": "firCount",
      "outputs": [
        {
          "internalType": "uint256",
          "name": "",
          "type": "uint256"
        }
      ],
      "stateMutability": "view",
      "type": "function"
    },
    {
      "inputs": [
        {
          "internalType": "string",
          "name": "firId",
          "type": "string"
        }
      ],
      "name": "getFIR",
      "outputs": [
        {
          "internalType": "string",
          "name": "firId_",
          "type": "string"
        },
        {
          "internalType": "string",
          "name": "cid_",
          "type": "string"
        },
        {
          "internalType": "string",
          "name": "dataHash_",
          "type": "string"
        },
        {
          "internalType": "uint256",
          "name": "timestamp_",
          "type": "uint256"
        },
        {
          "internalType": "address",
          "name": "registeredBy_",
          "type": "address"
        }
      ],
      "stateMutability": "view",
      "type": "function"
    },
    {
      "inputs": [
        {
          "internalType": "string",
          "name": "firId",
          "type": "string"
        }
      ],
      "name": "getVerification",
      "outputs": [
        {
          "internalType": "address",
          "name": "verifiedBy_",
          "type": "address"
        },
        {
          "internalType": "uint256",
          "name": "timestamp_",
          "type": "uint256"
        },
        {
          "internalType": "bool",
          "name": "exists_",
          "type": "bool"
        }
      ],
      "stateMutability": "view",
      "type": "function"
    },
    {
      "inputs": [
        {
          "internalType": "string",
          "name": "firId",
          "type": "string"
        }
      ],
      "name": "isFIRRegistered",
      "outputs": [
        {
          "internalType": "bool",
          "name": "",
          "type": "bool"
        }
      ],
      "stateMutability": "view",
      "type": "function"
    },
    {
      "inputs": [
        {
          "internalType": "string",
          "name": "firId",
          "type": "string"
        },
        {
          "internalType": "string",
          "name": "cid",
          "type": "string"
        },
        {
          "internalType": "string",
          "name": "dataHash",
          "type": "string"
        }
      ],
      "name": "registerFIR",
      "outputs": [],
      "stateMutability": "nonpayable",
      "type": "function"
    },
    {
      "inputs": [
        {
          "internalType": "string",
          "name": "firId",
          "type": "string"
        }
      ],
      "name": "verifyFIR",
      "outputs": [],
      "stateMutability": "nonpayable",
      "type": "function"
    }
  ],
  "bytecode": "0x608060405234801561001057600080fd5b50610d8a806100206000396000f3fe608060405234801561001057600080fd5b50600436106100625760003560e01c80635c93a79d1461006757806396853b851461007c578063b33346db146100a9578063d0a028d1146100bc578063d1c45a92146100f6578063e9bdc1871461010d575b600080fd5b61007a6100753660046109e3565b610130565b005b61008f61008a3660046109e3565b610300565b6040516100a0959493929190610a6b565b60405180910390f35b61007a6100b7366004610ac7565b610589565b6100cf6100ca3660046109e3565b61090f565b604080516001600160a01b03909416845260208401929092521515908201526060016100a0565b6100ff60025481565b6040519081526020016100a0565b61012061011b3660046109e3565b610960565b60405190151581526020016100a0565b60008282604051610142929190610b61565b9081526040519081900360200190206004015460ff600160a01b909104166101b15760405162461bcd60e51b815260206004820152601f60248201527f46495252656769737472793a20464952206e6f7420726567697374657265640060448201526064015b60405180910390fd5b600182826040516101c3929190610b61565b9081526040519081900360200190206002015460ff16156102395760405162461bcd60e51b815260206004820152602a60248201527f46495252656769737472793a2046495220616c72656164792076657269666965604482015269321037b716b1b430b4b760b11b60648201526084016101a8565b60408051606081018252338152426020820152600181830181905291519091906102669085908590610b61565b9081526040805160209281900383018120845181546001600160a01b0319166001600160a01b039091161781559284015160018401559201516002909101805460ff191691151591909117905533906102c29084908490610b61565b604051908190038120428252907f8cdc2337a440f4a6eb516968c5d61be9c082eda0b056d0dfc88147ce43885b2d9060200160405180910390a35050565b60608060606000806000878760405161031a929190610b61565b9081526040519081900360200190206004015460ff600160a01b909104166103845760405162461bcd60e51b815260206004820152601a60248201527f46495252656769737472793a20464952206e6f7420666f756e6400000000000060448201526064016101a8565b6000808888604051610397929190610b61565b9081526020016040518091039020905080600001816001018260020183600301548460040160009054906101000a90046001600160a01b03168480546103dc90610b71565b80601f016020809104026020016040519081016040528092919081815260200182805461040890610b71565b80156104555780601f1061042a57610100808354040283529160200191610455565b820191906000526020600020905b81548152906001019060200180831161043857829003601f168201915b5050505050945083805461046890610b71565b80601f016020809104026020016040519081016040528092919081815260200182805461049490610b71565b80156104e15780601f106104b6576101008083540402835291602001916104e1565b820191906000526020600020905b8154815290600101906020018083116104c457829003601f168201915b505050505093508280546104f490610b71565b80601f016020809104026020016040519081016040528092919081815260200182805461052090610b71565b801561056d5780601f106105425761010080835404028352916020019161056d565b820191906000526020600020905b81548152906001019060200180831161055057829003601f168201915b5050505050925095509550955095509550509295509295909350565b6000868660405161059b929190610b61565b9081526040519081900360200190206004015460ff600160a01b90910416156106125760405162461bcd60e51b815260206004820152602360248201527f46495252656769737472793a2046495220616c726561647920726567697374656044820152621c995960ea1b60648201526084016101a8565b8461066a5760405162461bcd60e51b815260206004820152602260248201527f46495252656769737472793a2066697249642063616e6e6f7420626520656d70604482015261747960f01b60648201526084016101a8565b826106b75760405162461bcd60e51b815260206004820181905260248201527f46495252656769737472793a204349442063616e6e6f7420626520656d70747960448201526064016101a8565b604081146107235760405162461bcd60e51b815260206004820152603360248201527f46495252656769737472793a206461746148617368206d7573742062652061206044820152721b1a16b1b430b9103432bc1029a42096991a9b60691b60648201526084016101a8565b6040518060c0016040528087878080601f016020809104026020016040519081016040528093929190818152602001838380828437600092019190915250505090825250604080516020601f880181900481028201810190925286815291810191908790879081908401838280828437600092019190915250505090825250604080516020601f860181900481028201810190925284815291810191908590859081908401838280828437600092018290525093855250504260208401525033604080840191909152600160609093019290925290516108069089908990610b61565b908152604051908190036020019020815181906108239082610c10565b50602082015160018201906108389082610c10565b506040820151600282019061084d9082610c10565b506060820151600382015560808201516004909101805460a0909301511515600160a01b026001600160a81b03199093166001600160a01b039092169190911791909117905560028054600191906000906108a9908490610cd0565b909155505060405133906108c09088908890610b61565b60405180910390207f4cef05cc3cf384b468bb8c7f0d5e1b619c0a7ffe074828a87648def92b3faddd86868686426040516108ff959493929190610d1a565b60405180910390a3505050505050565b60008060008060018686604051610927929190610b61565b908152604051908190036020019020805460018201546002909201546001600160a01b03909116955090935060ff169150509250925092565b6000808383604051610973929190610b61565b9081526040519081900360200190206004015460ff600160a01b9091041690505b92915050565b60008083601f8401126109ac57600080fd5b50813567ffffffffffffffff8111156109c457600080fd5b6020830191508360208285010111156109dc57600080fd5b9250929050565b600080602083850312156109f657600080fd5b823567ffffffffffffffff811115610a0d57600080fd5b610a198582860161099a565b90969095509350505050565b6000815180845260005b81811015610a4b57602081850181015186830182015201610a2f565b506000602082860101526020601f19601f83011685010191505092915050565b60a081526000610a7e60a0830188610a25565b8281036020840152610a908188610a25565b90508281036040840152610aa48187610a25565b606084019590955250506001600160a01b03919091166080909101529392505050565b60008060008060008060608789031215610ae057600080fd5b863567ffffffffffffffff80821115610af857600080fd5b610b048a838b0161099a565b90985096506020890135915080821115610b1d57600080fd5b610b298a838b0161099a565b90965094506040890135915080821115610b4257600080fd5b50610b4f89828a0161099a565b979a9699509497509295939492505050565b8183823760009101908152919050565b600181811c90821680610b8557607f821691505b602082108103610ba557634e487b7160e01b600052602260045260246000fd5b50919050565b634e487b7160e01b600052604160045260246000fd5b601f821115610c0b57600081815260208120601f850160051c81016020861015610be85750805b601f850160051c820191505b81811015610c0757828155600101610bf4565b5050505b505050565b815167ffffffffffffffff811115610c2a57610c2a610bab565b610c3e81610c388454610b71565b84610bc1565b602080601f831160018114610c735760008415610c5b5750858301515b600019600386901b1c1916600185901b178555610c07565b600085815260208120601f198616915b82811015610ca257888601518255948401946001909101908401610c83565b5085821015610cc05787850151600019600388901b60f8161c191681555b5050505050600190811b01905550565b8082018082111561099457634e487b7160e01b600052601160045260246000fd5b81835281816020850137506000828201602090810191909152601f909101601f19169091010190565b606081526000610d2e606083018789610cf1565b8281036020840152610d41818688610cf1565b915050826040830152969550505050505056fea26469706673582212203a2fdaa1dca6ad9914c5d5c7dace59717533cb6d353f4aa06005e8b06cee25d064736f6c63430008130033",
  "linkReferences": {},
  "deployedLinkReferences": {}
}